:020000040800F2
:10000000C843002069320008E5030008E703000840
:10001000EB030008EF030008F303000800000000F2
:10002000000000000000000000000000F7030008CE
:10003000F9030008000000001BEF00082D30000845
:1000400083320008833200088332000883320008BC
:100050008332000883320008330600088332000828
:100060008332000883320008833200082507000825
:10007000833200088332000883320008833200088C
:10008000833200088332000883320008833200087C
:1000900083320008833200088332000867060008B4
:1000A000833200088332000883320008833200085C
:1000B0004D040008FB030008833200088332000867
:1000C000833200088332000883320008833200083C
:1000D00083320008710400088332000821050008FB
:1000E000F70600088332000883320008DFF80CD0DE
:1000F0000EF0BAFE00480047B9010008C8430020CE
:1001000038B50446002500BF05F0F0FA68460BF04C
:100110005AFA6A460121084607F0E3FA00BF00BF19
:1001200000BF05F01BFC054600BF00BFA4480078D7
:10013000401CA349087000BF00BF284605F012FC10
:1001400000BF00BF00BF02F087FB02F05EFD012090
:100150009C49087000BF00BF00BF05F0FFFB0546CB
:1001600000BF00BF96480078401E954908700846B9
:100170000078A0B994480088002809DD00BF00BFBE
:10018000284605F0EFFB00BF00BF07F093FE0DE02F
:1001900000BF00BF284605F0E5FB00BF06E000BF3A
:1001A00000BF284605F0DEFB00BF00BF00BF694668
:1001B00000200BF04AFE38BD10B590B0002402F0CC
:1001C000EBFE02F0E7FF02F03DFF02F0A8FE012087
:1001D00080F3108800BF4FF4A06003F04FF901F0E6
:1001E00097FA01F03AF800F063FB08B100BFFEE7B0
:1001F0000BA803F064FE002080F3108800BF01F01C
:10020000B6FB01F0DFFB012001F08BFB012001F0C8
:100210009BFB00BF01F016FD0028FBD000BF4D2066
:1002200001F0F8FF0028FAD000BF01F00BFD002814
:10023000FBD000BF02F096F80028FBD000BF01F011
:1002400001FD0028FBD000BF02F0F8F90028FBD028
:1002500000BF01F031FE0028FBD000BF01F0DEFD41
:100260000028FBD000BF01F0A5FE0028FBD000BF96
:1002700001F0F0FE0028FBD000BF002001F03AFFA3
:100280000028FAD000BF01F055FD0028FBD000BFC8
:1002900001F014FD0028FBD000BF532002F027F826
:1002A0000028FAD000BF01F009FD0028FBD000BFF4
:1002B00001F02AFE0028FBD000BF01F0D6FD002887
:1002C000FBD000BF01F09EFE0028FBD000BF01F074
:1002D000E9FE0028FBD000BF002001F03AFF002813
:1002E000FAD000BF01F060FD0028FBD04FF40051B0
:1002F000364803F03EFA01F003FB0AA806F0C8FFF7
:1003000000BF00BF00BF05F029FB044600BF00BFCF
:100310002B480078401C2A49087000BF00BF2046C7
:1003200005F020FB00BF00BF00BF0AA80321002288
:100330000592CDE906210890104680210C22244B1D
:10034000CDE90132CDE9031003200023AFF24F22A3
:1003500020A1009022480BF03DFC00BF00BF00BF71
:1003600005F0FCFA044600BF00BF15480078401EA7
:100370001349087008460078A0B91348008800287F
:1003800009DD00BF00BF204605F0ECFA00BF00BF4A
:1003900007F090FD0DE000BF00BF204605F0E2FA37
:1003A00000BF06E000BF00BF204605F0DBFA00BF3B
:1003B00000BF00BF0AA807F034FA002010B010BD3B
:1003C0000001002018000020C4000020000C0140A3
:1003D000280200207374617274207461736B0000D2
:1003E00064010020704700BFFEE700BFFEE700BFCA
:1003F000FEE700BFFEE77047704710B5CA480078B7
:10040000012801D106F0DAFF0121C84805F0F7F80C
:10041000A8B10120C6490870C64800884CF2503186
:10042000884205DAC3480088401CC249088002E0BF
:100430000020C049088000F086FA00F049FB012145
:10044000BA4805F0EDF806F0CAFF10BD10B506F089
:10045000B5FF0121880705F0D2F80121880705F0D2
:10046000DFF8B1480078012801D106F0B8FF10BDCF
:1004700010B5AD480078012801D106F09FFF40F289
:100480002551AD4803F0D6FBB8B140F22551AA483A
:1004900003F0FAFBA84803F04DFBA84981F8A50139
:1004A000084690F8A501A649A64A12788854A5489E
:1004B0000078401CA34908701EE040F224419E4889
:1004C00003F0B8FB012817D19F4908709B4981F8B8
:1004D000A4019B48C1F8A801974800889B4908706F
:1004E0009548001D00880870964800789349A1F847
:1004F000A60100209349087008218F4803F084FB6F
:10050000012806D108218C4803F08BFB8A4803F0B0
:1005100011FB85480078012801D106F060FF10BD6D
:1005200010B581480078012801D106F047FF40F25C
:100530002551874803F07EFBB8B140F2255184482D
:1005400003F0A2FB824803F0F5FA824981F8A50185
:10055000084690F8A5018049804A127888547F485F
:100560000078401C7D4908704FE040F224417848F3
:1005700003F060FB012848D179490870754981F87A
:10058000A4017548007843282BD1734840784D2842
:1005900027D171488078442823D16F48C07831280A
:1005A00008D1704B002201216F4808F0A8FC6FA011
:1005B00001F045FA6848C078302812D1694B012211
:1005C0001146694808F09BFC6AA001F038FA4FF424
:1005D00000416A4803F0CDF84FF48041674803F0CA
:1005E000C8F85D485B49C1F8A801594800885749D7
:1005F00008705748001D0088087058480078554911
:10060000A1F8A6010020554908700821504803F0C0
:10061000FBFA012806D108214D4803F002FB4C48A3
:1006200003F088FA40480078012801D106F0D7FE8F
:1006300010BD10B53C480078012801D106F0BEFE7F
:10064000012003F085FD38B1012003F092FD02F096
:1006500041FC08B102F017FC33480078012801D1B1
:1006600006F0BDFE10BD10B52F480078012801D15D
:1006700006F0A4FE4FF4807003F06AFDB8B14FF4A9
:10068000807003F076FD01F0C8F92C4981F8A201D1
:10069000084690F8A20128B94FF40041374803F00A
:1006A00068F804E04FF40041344803F064F84FF474
:1006B000007003F04DFDB8B14FF4007003F059FD28
:1006C00001F0B4F9234981F8A201084690F8A2018B
:1006D00028B94FF48041294803F04BF804E04FF467
:1006E0008041264803F047F80F480078012801D1DF
:1006F00006F075FE10BD10B50B480078012801D139
:1007000006F05CFE4FF4805003F022FD18B14FF468
:10071000805003F02EFD04480078012801D106F036
:100720005EFE10BD7047000018000020000400406D
:10073000040000201A00002000380140B409002005
:10074000280400201E0000201F00002020000020A0
:1007500000480040640B0020A80400202100002075
:10076000220000201C000020D41F0020434D4431F3
:1007700000000000434D443000000000000C014028
:1007800070B506460C46154600F07AFD304600F07E
:1007900015FE00F0BAFD204600F010FE00F0B5FD99
:1007A000284600F00BFE0A2002F0D3FC00F0ADFD5D
:1007B00000F091FD0A2002F0CCFC012070BD70B564
:1007C00004460D46002600F05BFD204600F0F6FDD5
:1007D00000F09BFD284600F0F1FD00F096FD00F0D2
:1007E0004FFD44F0010000F0E9FD00F08EFD00F047
:1007F0000FFE064600F0A3FD00F06DFD304670BD13
:100800002DE9F04107460C4615461E46384600F0D5
:10081000D5FD00F0AEFD20B900F05DFD0020BDE883
:10082000F081284600F0CAFD00F0A3FD05E0207825
:1008300000F0C4FD00F09DFD641C3000A6F1010134
:10084000CEB2F4D100F047FD0A2002F082FC012074
:10085000E5E72DE9F04106460F4615461C4600F037
:100860000FFD304600F0AAFD00F083FD384600F091
:10087000A5FD00F07EFD00F003FD46F0010000F054
:100880009DFD00F076FD0CE000F0C2FD2870012C0B
:1008900002D100F054FD01E000F037FD6D1C601E38
:1008A000C4B2002CF0D100F016FD0120BDE8F081AB
:1008B00010B54FF4967002F04CFC00226B21D02052
:1008C000FFF75EFF642002F044FC7521D020FFF7A3
:1008D00076FFFE49087008460078712831D14FF440
:1008E0007A7002F036FC80226B21D020FFF748FF9F
:1008F00000226C21D020FFF743FF01221921D020D4
:10090000FFF73EFF04221A21D020FFF739FF1822FB
:100910001B21D020FFF734FF00226A21D020FFF7EF
:100920002FFF10221C21D020FFF72AFF04221D21B7
:10093000D020FFF725FF4FF4967002F00AFC00204C
:1009400010BD0120FCE72DE9F0413C21D020FFF74C
:1009500036FFDF4908703B21D020FFF730FFDC492C
:10096000487008460078497840EA012000B2D94929
:1009700008803E21D020FFF722FFD54988703D2115
:10098000D020FFF71CFFD249C87008468078C9788C
:1009900040EA012000B2D04908804021D020FFF772
:1009A0000EFFCB4908713F21D020FFF708FFC8494F
:1009B000487108460079497940EA012000B2C749E8
:1009C0000880C748B0F9000041F21111884244D1B3
:1009D000C3484088BF490988081A00B2C149088045
:1009E000BF488088BC490988081A00B2BD494880C0
:1009F000BB48C088B9490988081A00B2B94988803B
:100A0000B1F900000EF024F90646B74AB74B0EF0D4
:100A1000A4F804460EF059F9B5490860B149B1F996
:100A200002000EF015F90646AF4AB04B0EF095F8ED
:100A300004460EF04AF9AE494860AA49B1F90400EB
:100A40000EF006F90646A84AA84B0EF086F80446B2
:100A50000EF03BF9A649886038E09E48B0F90000E6
:100A6000A04908809C48B0F9000048809B48B0F934
:100A700000008880B1F900000EF0EAF806469A4AB4
:100A80009A4B0EF06AF804460EF01FF99949086077
:100A90009449B1F902000EF0DBF80646924A934BF6
:100AA0000EF05BF804460EF010F9924948608D494B
:100AB000B1F904000EF0CCF806468B4A8B4B0EF0D1
:100AC0004CF804460EF001F98A498860BDE8F081CF
:100AD0002DE9F0414421D020FFF771FE7C490870D8
:100AE0004321D020FFF76BFE794948700846007813
:100AF000497840EA012000B2764908804621D0209A
:100B0000FFF75DFE724988704521D020FFF757FE40
:100B10006F49C87008468078C97840EA012000B261
:100B20006D4908804821D020FFF749FE68490871C7
:100B30004721D020FFF743FE6549487108460079F8
:100B4000497940EA012000B2644908806448B0F95C
:100B5000080042F22221884244D1614840895D491F
:100B60000988081A00B2644908805D4880895A499A
:100B70000988081A00B2604948805948C089574915
:100B80000988081A00B25C498880B1F900000EF0AB
:100B90005FF80646594A5A4B0DF0DFFF04460EF047
:100BA00094F85349C8605449B1F902000EF050F866
:100BB0000646524A524B0DF0D0FF04460EF085F81F
:100BC0004B4908614C49B1F904000EF041F8064662
:100BD0004A4A4B4B0DF0C1FF04460EF076F84449EB
:100BE000486138E03B48B0F90000434908803A4882
:100BF000B0F9000048803948B0F900008880B1F9A8
:100C000000000EF025F806463C4A3D4B0DF0A5FFCE
:100C100004460EF05AF83749C8603749B1F9020066
:100C20000EF016F80646354A354B0DF096FF044691
:100C30000EF04BF82F4908612F49B1F904000EF06E
:100C400007F806462D4A2E4B0DF087FF04460EF09E
:100C50003CF828494861BDE8F0812DE9F04F87B0A4
:100C600011220A211820FFF78BFD03211820FFF71E
:100C7000A6FD1749087004211820FFF7A0FD1449AC
:100C8000487008460078497840EA012000B21149CE
:100C9000088005211820FFF792FD0D498870062174
:100CA0001820FFF78CFD0A49C87008468078C9787B
:100CB00040EA012000B20849088007211820FFF708
:100CC0007EFD03490871082118201BE04000002028
:100CD000A805002046000020480000204A0000200F
:100CE0004205002006000020B81E85EB51B8633F86
:100CF00084050020600500200C000020ABAAAA0299
:100D00000B74513FFFF75BFDFE49487108460079BF
:100D1000497940EA012000B2FB490880FB48B0F95C
:100D2000100043F2333188427ED1F948B0F9000017
:100D3000F8490880F848B0F900004880F248B0F956
:100D400000008880F54908680DF0ACFF04460D46A8
:100D5000EE49B1F918000DF072FFEC490290B1F9BB
:100D60001A000DF06CFF019002990DF0B8FEE749F2
:100D70000490B1F912000DF062FFE94900900DF006
:100D8000AEFEE4490290B1F900000DF058FF019069
:100D900002990DF06CFE039004990DF06EFE059023
:100DA0000DF080FF0646DF4ADF4B0DF0D6FE82468F
:100DB00022462B460DF0D1FE80460DF086FFDB4922
:100DC0008861D64948680DF06DFF06460F46CF4949
:100DD000B1F91A000DF033FFCC490290B1F91A00B5
:100DE0000DF02DFF019002990DF079FE8346C74961
:100DF000B1F914000DF023FFC94900900DF06FFE0A
:100E0000C4490290B1F902000DF019FF0190029956
:100E10000DF0DBFD594603900DF02FFE82460DF0DC
:100E200041FFC04AC04B00E04DE0CDE904010DF0A8
:100E300094FE804632463B460DF08FFE04460DF090
:100E400044FFBA49C861B54988680DF02BFF0446D4
:100E50000D46AE49B1F91C000DF0F1FEAB49029010
:100E6000B1F91A000DF0EBFE019002990DF037FE7A
:100E7000A6490490B1F916000DF0E1FEA8490090D2
:100E80000DF02DFEA3490290B1F904000DF0D7FE3C
:100E9000019002990DF099FD039004990DF0EDFD7C
:100EA00005900DF0FFFE80469E4A9F4B0DF055FECB
:100EB000064622462B460DF050FE82460DF005FFF9
:100EC0009A4908625AE09248B0F9000091490880B6
:100ED0009148B0F9000048808B48B0F90000888044
:100EE0008E4908680DF0DEFE82468B468949B1F9CD
:100EF00000000DF0ADFE06468A4A8B4B0DF02DFE2C
:100F0000804652465B460DF028FE04460DF0DDFE9D
:100F100087498861814948680DF0C4FE04460D4642
:100F20007C49B1F902000DF093FE82467D4A7E4B6A
:100F30000DF013FE064622462B460DF00EFE8046AF
:100F40000DF0C3FE7A49C861744988680DF0AAFEA5
:100F500006460F466F49B1F904000DF079FE82464E
:100F6000704A714B0DF0F9FD804632463B460DF05C
:100F7000F4FD04460DF0A9FE6D49086207B0BDE816
:100F8000F08F2DE9F04100240025002600270EE017
:100F9000FFF7D9FC641C6748B0F9000005446548B8
:100FA000B0F9020006446348B0F904000744B4F500
:100FB000FA7FEDDB95FBF4F000B25F49088096FB09
:100FC000F4F000B2488097FBF4F000B2888041F260
:100FD00011105A490880584800884880564840886F
:100FE000888055488088A0F58050C88004225448E5
:100FF00000F01BFB0024BDE8F0812DE9F041002446
:101000000025002600270EE0FFF762FD641C4D4816
:10101000B0F9000005444B48B0F9020006444948C5
:10102000B0F904000744B4F5FA7FEDDB95FBF4F06A
:1010300000B24549088096FBF4F000B2488097FB67
:10104000F4F000B2888042F222203C4908803E48F9
:10105000008848803C48408888803B488088C88019
:1010600004223748083000F0E0FA0024BDE8F0819F
:101070002DE9F04707460C4615461E46DDE908896E
:101080004FF07E5138460DF0F8FC82460DF0F1FD30
:1010900000B22E4908804FF07E5120460DF0EDFC45
:1010A00082460DF0E6FD00B2284948804FF07E519F
:1010B00028460DF0E2FC82460DF0DBFD00B223492C
:1010C00088804FF07E5130460DF0D7FC82460DF0FF
:1010D000D0FD00B21D49C8804FF07E5140460DF052
:1010E000CCFC82460DF0C5FD00B2184908814FF0D6
:1010F0007E5148460DF0C1FC82460DF0BAFD00B2AB
:10110000124925E0A80500204A00002042050020E1
:10111000460000201200002048000020340000207B
:101120000000C84222374937E590583F8405002027
:101130006005002006000020240000203405002067
:1011400000E000080C0000202A00002028050020F4
:10115000488143F233303749088037480088488057
:1011600035484088888034488088C8803248C088A4
:1011700008813148008948812F48408988810722A9
:101180002E4800F052FABDE8F08710B50F222C4926
:101190002A48103800F038FA10BD10B500240A2192
:1011A0001820FFF70CFB044624F00F020A21182038
:1011B000FFF7E6FA6B21D020FFF701FB044644F06D
:1011C00010026B21D020FFF7DBFA0A2001F0C1FFEB
:1011D00010BD10B500246B21D020FFF7F0FA0446B3
:1011E00001226B21D020FFF7CBFA0A2001F0B1FFDA
:1011F00010BD10B56B21D020FFF7E1FA044624F0B2
:1012000040026B21D020FFF7BBFA642001F0A1FF60
:1012100010BD10B56B21D020FFF7D1FA044644F081
:1012200040026B21D020FFF7ABFA642001F091FF60
:1012300010BD0000340500202805002010E0000843
:101240004205002008B50520009002E00098401EED
:10125000009000980028F9D108BD08B501210820A8
:1012600002F09AFEC020ADF8000003208DF80200C5
:1012700014208DF803006946D74802F0CDF908BD67
:1012800010B58020D4491031086040200860FFF775
:10129000D9FFD1480830006808B9012000E00020DB
:1012A00000F0800008B1002010BD8020CA49143130
:1012B0000860FFF7C7FFC8480830006800F08000EA
:1012C00008B10020F0E78020C34914310860FFF71F
:1012D000B9FF0120E8E710B54020BF49143108608C
:1012E000FFF7B0FF8020BC4914310860FFF7AAFF68
:1012F0004020B94910310860FFF7A4FF8020B649AB
:1013000010310860FFF79EFF10BD10B54020B249B4
:1013100014310860FFF796FF8020AF491431086050
:10132000FFF790FF4020AC4910310860FFF78AFFBB
:101330004020A94914310860FFF784FF10BD10B5A3
:101340004020A54914310860FFF77CFF8020A249A6
:1013500010310860FFF776FF40209F491031086088
:10136000FFF770FF40209C4914310860FFF76AFFC7
:1013700010BD10B54020984914310860FFF762FF96
:101380008020954910310860FFF75CFF40209249AA
:1013900010310860FFF756FF8F480830006800F0F2
:1013A000800028B140208C4914310860002010BD15
:1013B00040208949143108600120F8E770B50446DF
:1013C00008251BE04020844914310860FFF73AFFEC
:1013D00004F0800020B180207F491031086003E0D4
:1013E00080207D49143108606006040EFFF72AFF53
:1013F0004020794910310860FFF724FF2800A5F14B
:101400000101CDB2DED1402073491431086070BDB6
:1014100070B50825002480206F491031086015E060
:101420006006040E40206C4914310860FFF70AFF83
:101430004020694910310860FFF704FF6648083012
:10144000006800F0800008B144F001042800A5F114
:101450000101CDB2E4D140205F491431086020463B
:1014600070BD2DE9F04105460E4617469846FFF738
:1014700007FF10B90020BDE8F081002141EA4501D5
:10148000C8B2FFF79BFFFFF774FF18B9FFF723FF00
:101490000020F0E73046FFF791FFFFF76AFF0024D6
:1014A0000BE018F80400FFF789FFFFF762FF18B997
:1014B000FFF711FF0020DEE7641CBC42F1DBFFF701
:1014C0000AFF0120D7E72DE9F04104460D461646F4
:1014D0001F463B46324629462046FFF7C2FF10B161
:1014E0000020BDE8F0814FF0FF30FAE72DE9F04130
:1014F00005460F4614461E46FFF7C2FE10B90020EF
:10150000BDE8F081002141EA4501C8B2FFF756FF6E
:10151000FFF72FFF18B9FFF7DEFE0020F0E738468F
:10152000FFF74CFFFFF725FFFFF7AAFE012101EBB4
:101530004501C8B2FFF742FFFFF71BFF0CE0FFF7C2
:1015400067FF3070012C02D1FFF7F9FE01E0FFF7D1
:10155000DCFE761C601EC4B2002CF0D1FFF7BBFE8F
:101560000120CDE72DE9F04104460D4616461F4601
:101570003B46324629462046FFF7B8FF10B100200F
:10158000BDE8F0814FF0FF30FAE770B504460D4634
:101590001646FFF775FE08B9002070BD002141EA2C
:1015A0004401C8B2FFF70AFFFFF7E3FE18B9FFF7DF
:1015B00092FE0020F1E72846FFF700FFFFF7D9FE73
:1015C0003046FFF7FBFEFFF7D4FEFFF784FE012055
:1015D000E3E7002070470000000C01400146088846
:1015E00070472DE9F04105460E461746002407E0F6
:1015F00036F81410284602F02CFFAD1C601C84B293
:10160000BC42F5DBBDE8F08130B503460C4615461B
:10161000002207E01846FFF7E1FF24F812009B1CA8
:10162000501C82B2AA42F5DB30BD2DE9F05F804646
:101630008A461746B8F1006F02D33348804501D37C
:10164000BDE8F09F02F0BDFDA8F1006B4FEA9B25BD
:10165000CBF34809C9F50074A74200DC3C464DE0D5
:101660004FF0006101EB85208A142849FFF7CCFF79
:1016700000260BE009EB0600244931F810004FF674
:10168000FF71884200D003E0701C86B2A642F1DBF5
:1016900000BFA6421BDA4FF0006101EB852002F08B
:1016A000D5FD002608E03AF8160006EB0901174AB6
:1016B00022F81100701C86B2A642F4DB4FF00061E4
:1016C00001EB85208A141149FFF78BFF04E02246C5
:1016D00051464046FFF785FFA74200D10FE06D1C41
:1016E0004FF000090AEB440AA044381B87B2B7F553
:1016F000007F02DD4FF4007400E03C46B0E700BF1D
:1017000002F06BFD00BF9BE700000108B20500205E
:1017100000B589B001210D2002F03EFC01218803B3
:1017200002F03AFC0121880402F043FC4FF40070FF
:10173000ADF8200018208DF8230003208DF822003A
:1017400008A9FD4801F068FF4FF48060ADF8200063
:1017500004208DF8230008A9F74801F05DFF4FF43D
:10176000614004900020ADF81400ADF81600ADF80B
:101770001800ADF81C000C20ADF81A0004A9EF48C1
:1017800002F0DBF8012240F22551EC4802F06DF93D
:10179000012240F22441E94802F067F94FF4A060C9
:1017A00001F06CFE25208DF80C0002208DF80D0054
:1017B0008DF80E0001208DF80F0003A801F063FEE4
:1017C0000121DE4802F045F94021DC4802F029FA07
:1017D0004FF48060ADF8200018208DF8230003201E
:1017E0008DF8220008A9D64801F016FF4FF40060DA
:1017F000ADF8200004208DF8230008A9D04801F09E
:101800000BFF04A9CF4802F098F8012240F22551BD
:10181000CC4802F02AF9012240F22441C94802F0E2
:1018200024F94FF4A06001F029FE27208DF80C0068
:1018300002208DF80D008DF80E0001208DF80F00AC
:1018400003A801F020FE0121BE4802F002F9402168
:10185000BC4802F0E6F94FF44070ADF820000420D7
:101860008DF8230008A9B64801F0D6FE0821012012
:1018700001F0E8FF0921012001F0E4FF4FF440707E
:10188000019000208DF8080010208DF8090000203C
:101890008DF80A0001A802F0F5FB4FF4A06001F0FA
:1018A000EDFD17208DF80C0001208DF80D000220B1
:1018B0008DF80E0001208DF80F0003A801F0E3FD64
:1018C0001820ADF8200010208DF8230008A99C48AE
:1018D00001F0A2FE4FF4C050ADF8200010208DF8AA
:1018E000230008A9944801F097FE4FF4C051924894
:1018F00001F03FFF1821924801F03BFF09B000BD05
:101900001CB54FF44070009000208DF804001020AA
:101910008DF8050001208DF80600684602F0B2FB44
:101920001CBD10B5044624B90821854801F021FFEB
:1019300009E0012C07D10821814801F01CFF40F289
:10194000DC5001F006FC10BD10B5044624B910218E
:101950007B4801F00EFF09E0012C07D110217848E7
:1019600001F009FF40F2DC5001F0F3FB10BD10B5AF
:101970004FF40061704801F0FEFE1E2001F0E9FB0B
:101980004FF400616C4801F0F4FE00BF6E4890F81F
:10199000A4010028FAD000206B4981F8A401084670
:1019A000D0F8A81100F590700DF006F8664AB2F96B
:1019B000A611D2F8A8010CF0CDFF4FF47A7001F017
:1019C000C8FB10BD10B54FF480515B4801F0D3FE49
:1019D0001E2001F0BEFB4FF48051574801F0C9FEB4
:1019E00000BF5A4890F8A4010028FAD000205749B7
:1019F00081F8A4010846D0F8A81100F590700CF009
:101A0000DBFF524AB2F9A611D2F8A8010CF0A2FFEE
:101A10004FF47A7001F09DFB10BD10B54FF480714A
:101A2000474801F08CFE0446204610BD10B54FF427
:101A30000071434801F083FE0446204610BD70B596
:101A40000546002400BF0BE0295D3C4802F06EF81B
:101A500000BF4021394802F0D7F80028F9D0641CB3
:101A600028460CF094FFA042EED870BD70B5054634
:101A7000002400BF0BE0295D324802F057F800BF98
:101A80004021304802F0C0F80028F9D0641C2846F4
:101A90000CF07DFFA042EED870BD70B505460E4635
:101AA000002400BF0BE0295D264802F03FF800BF8C
:101AB0004021244802F0A8F80028F9D0641CB44260
:101AC000F1DB70BDF7B586B00C4615460027002641
:101AD000AA208DF804008DF805009DF818008DF8F7
:101AE00006009DF819008DF8070020788DF8080091
:101AF00060788DF80900A0788DF80A00E0788DF8FC
:101B00000B0020798DF80C0060798DF80D00287895
:101B10008DF80E0068788DF80F00A8788DF8100009
:101B2000E8788DF8110028798DF8120068798DF821
:101B3000130000BF10E00000000801400038014021
:101B4000000C014000480040B4090020640B002054
:101B500001A8805D0743761C102EF9DB8DF8147008
:101B6000BB208DF8150000260CE001A8815DFA4825
:101B700001F0DCFF00BF4021F74802F045F80028E3
:101B8000F9D0761C122EF0DB09B0F0BDF7B586B0A7
:101B90000C46154600270026AA208DF804008DF873
:101BA00005009DF818008DF806009DF819008DF8C5
:101BB000070020788DF8080060788DF80900A0787B
:101BC0008DF80A00E0788DF80B0020798DF80C0074
:101BD00060798DF80D0028788DF80E0068788DF802
:101BE0000F00A8788DF81000E8788DF8110028799A
:101BF0008DF8120068798DF8130000BF03E001A88A
:101C0000805D0743761C102EF9DB8DF814700020E0
:101C10008DF815008DF81600BB208DF817000026F2
:101C20000CE001A8815DCD4801F080FF00BF40219C
:101C3000CA4801F0E9FF0028F9D0761C142EF0DB29
:101C400009B0F0BD7CB50024C5A103C9CDE90001F0
:101C50006846FFF7F4FE05E0641CC348844201D3E4
:101C600000207CBDC14890F8A4010028F4D0C0A594
:101C70000020BE4981F8A401D1F8A80129460CF042
:101C80008DFE60B90120B94981F8A0010A46B2F978
:101C9000A611D2F8A8010CF05DFE0120E1E70020BA
:101CA000B24981F8A00181F8A4010A46B2F9A6114F
:101CB000D2F8A8010CF04EFE0020D2E77CB500243B
:101CC000A7A103C9CDE900016846FFF7CFFE05E0F3
:101CD000641CA548844201D300207CBDA64890F82E
:101CE000A4010028F4D0A2A50020A34981F8A401F2
:101CF000D1F8A80129460CF051FE60B901209E4997
:101D000081F8A0010A46B2F9A611D2F8A8010CF098
:101D100021FE0120E1E70020974981F8A00181F828
:101D2000A4010A46B2F9A611D2F8A8010CF012FEDD
:101D30000020D2E73EB5002490A207CA8DE8070034
:101D40006846FFF77CFE05E0641C8748844201D3A7
:101D500000203EBD854890F8A4010028F4D08AA553
:101D60000020824981F8A401D1F8A80129460CF08D
:101D700015FE60B900207D4981F8A0010A46B2F93C
:101D8000A611D2F8A8010CF0E5FD0120E1E7012041
:101D9000764981F8A0010A46B2F9A611D2F8A80145
:101DA0000CF0D8FD0020D4E73EB5002473A207CA8A
:101DB0008DE807006846FFF759FE05E0641C6A4895
:101DC000844201D300203EBD6B4890F8A401002856
:101DD000F4D06DA50020684981F8A401D1F8A801CC
:101DE00029460CF0DBFD60B90020634981F8A001B1
:101DF0000A46B2F9A611D2F8A8010CF0ABFD0120F9
:101E0000E1E701205C4981F8A0010A46B2F9A61178
:101E1000D2F8A8010CF09EFD0020D4E73EB50024C6
:101E20005EA207CA8DE807006846FFF708FE05E0D6
:101E3000641C4D48844201D300203EBD4B4890F8BD
:101E4000A4010028F4D00020484981F8A4010846E4
:101E5000D0F8A8110CF0B0FD444AB2F9A611D2F89E
:101E6000A8010CF077FD0120E7E73EB500244BA266
:101E700007CA8DE807006846FFF7F8FD05E0641C17
:101E80003948844201D300203EBD3B4890F8A4016C
:101E90000028F4D00020384981F8A4010846D0F881
:101EA000A8110CF089FD344AB2F9A611D2F8A801A4
:101EB0000CF050FD0120E7E73EB500243AA207CA26
:101EC0008DE807006846FFF7BAFD05E0641C264868
:101ED000844201D300203EBD244890F8A40100288C
:101EE000F4D00020214981F8A4010846D0F8A811B7
:101EF00020300CF061FD1D4AB2F9A611D2F8A801FC
:101F00000CF028FD0120E6E73EB5002426A207CA12
:101F10008DE807006846FFF7A9FD05E0641C12483C
:101F2000844201D300203EBD134890F8A40100284C
:101F3000F4D00020104981F8A4010846D0F8A81177
:101F400020300CF039FD0C4AB2F9A611D2F8A801E4
:101F50000CF000FD0120E6E7003801400048004099
:101F60002B2B2B6100000000E0930400B40900203B
:101F7000612B6F6B0D0A0000640B002041542B4550
:101F80004E544D0D0A0000000D0A2B454E544D3A9B
:101F90004F4B0D0A4F4B0D0A0000000041542B4ED1
:101FA000414D453F0D0A000041542B4D4F44453FE4
:101FB0000D0A00003EB50024FEA207CA8DE8070006
:101FC0006846FFF73CFD05E0641CFD48844201D3F0
:101FD00000203EBDFB4890F8A4010028F4D000206A
:101FE000F84981F8A4010846D0F8A81140300CF057
:101FF000E3FCF44AB2F9A611D2F8A8010CF0AAFC4D
:102000000120E6E73EB50024EAA207CA8DE80700F2
:102010006846FFF72BFD05E0641CE948844201D3C4
:1020200000203EBDE84890F8A4010028F4D000202C
:10203000E54981F8A4010846D0F8A81140300CF019
:10204000BBFCE14AB2F9A611D2F8A8010CF082FC5F
:102050000120E6E73EB50024DCA207CA8DE80700B0
:102060006846FFF7ECFC05E0641CD548844201D3C8
:1020700000203EBDD34890F8A4010028F4D00020F1
:10208000D04981F8A4010846D0F8A81160300CF0BE
:1020900093FCCC4AB2F9A611D2F8A8010CF05AFC74
:1020A0000120E6E73EB50024C8A207CA8DE8070074
:1020B0006846FFF7DBFC05E0641CC148844201D39D
:1020C00000203EBDC04890F8A4010028F4D00020B4
:1020D000BD4981F8A4010846D0F8A81160300CF081
:1020E0006BFCB94AB2F9A611D2F8A8010CF032FC87
:1020F0000120E6E770B5044600260CB9B6A505E058
:10210000012C01D1B8A501E0002070BD2846FFF7E1
:1021100096FC05E0761CAA48864201D30020F4E72D
:10212000A84890F8A4010028F4D00020A54981F81F
:10213000A4010846D0F8A81100F5B0700CF03CFCE2
:10214000A04AB2F9A611D2F8A8010CF003FC0120B4
:10215000DBE770B5044600260CB99FA505E0012C0D
:1021600001D1A1A501E0002070BD2846FFF77EFC4B
:1021700005E0761C9248864201D30020F4E792489D
:1021800090F8A4010028F4D000208F4981F8A40120
:102190000846D0F8A81100F5B0700CF00DFC8A4A82
:1021A000B2F9A611D2F8A8010CF0D4FB0120DBE7AC
:1021B0007CB5002490A103C9CDE900016846FFF772
:1021C0003EFC05E0641C7E48844201D300207CBDB7
:1021D0007C4890F8A4010028F4D00020794981F8C7
:1021E000A40187A5D1F8A80129460CF0D7FB40B976
:1021F000744AB2F9A611D2F8A8010CF0ABFB012089
:10220000E5E7704AB2F9A611D2F8A8010CF0A2FBDA
:102210000020DCE770B5044600264D2C01D17CA5DA
:102220000DE0532C01D17DA509E0422C01D17EA502
:1022300005E0462C01D17FA501E0002070BD2846B5
:10224000FFF7FDFB05E0761C5D48864201D30020C8
:10225000F4E75C4890F8A4010028F4D00020594924
:1022600081F8A401764908605648D0F8A8112030BA
:102270000CF0A2FB534AB2F9A611D2F8A8010CF057
:1022800069FBFFF795FF0120D8E77CB500245AA130
:1022900003C9CDE900016846FFF7E8FB05E0641CCF
:1022A0004748844201D300207CBD474890F8A401F0
:1022B0000028F4D00020444981F8A40150A5D1F8A9
:1022C000A80129460CF06AFB40B93F4AB2F9A611B1
:1022D000D2F8A8010CF03EFB0120E5E73A4AB2F93A
:1022E000A611D2F8A8010CF035FB0020DCE770B590
:1022F000044600264D2C01D145A50DE0532C01D1FB
:1023000046A509E0422C01D147A505E0462C01D1A4
:1023100048A501E0002070BD2846FFF7A7FB05E0B7
:10232000761C2748864201D30020F4E7264890F81F
:10233000A4010028F4D00020234981F8A4014049D9
:1023400008602148D0F8A81120300CF035FB1E4A57
:10235000B2F9A611D2F8A8010CF0FCFAFFF795FF2C
:102360000120D8E710B588B000241C2235A101A8AF
:102370000CF0D7FA01A8FFF762FB06E0641C1048D6
:10238000844202D3002008B010BD0E4890F8A4018A
:102390000028F3D000200B4981F8A4010846D0F8AA
:1023A000A81100F5C0700CF007FB064AB2F9A6119F
:1023B00056E0000041542B4D41433F0D0A00000000
:1023C000E0930400B4090020640B002041542B4327
:1023D000495645523F0D0A0041542B4D4158505526
:1023E000543D4F46460D0A0041542B4D415850551F
:1023F000543D4F4E0D0A000041542B5A0D0A000067
:102400000D0A2B5253543A4F4B0D0A4F4B0D0A00F5
:1024100041542B4D4F44453D4D0D0A0041542B4D29
:102420004F44453D530D0A0041542B4D4F44453D0B
:10243000420D0A0041542B4D4F44453D460D0A00C4
:102440005000002041542B434F4E4E4144443D39EF
:1024500043413532353132444431390D0A000000F0
:10246000D2F8A8010CF076FAFFF7A2FE01208AE765
:1024700010B588B000241C22AFF2380101A80CF07E
:1024800050FA01A8FFF7F2FA06E0641CDA48844229
:1024900002D3002008B010BDD84890F8A40100284D
:1024A000F3D00020D54981F8A4010846D0F8A8113E
:1024B00000F5C0700CF080FAD04AB2F9A611D2F83B
:1024C000A8010CF047FAFFF7E0FE0120E2E73EB575
:1024D0000024002500BF00BF00BF03F03FFA0546FF
:1024E00000BF00BFC6480078401CC549087000BF47
:1024F00000BF284603F036FA00BF00BF00BFC1A2EC
:1025000007CA8DE807006846FFF799FA00BF00BFC9
:1025100000BF03F023FA054600BF00BFB8480078AB
:10252000401EB749087008460078A0B9B84800882E
:10253000002809DD00BF00BF284603F013FA00BFE2
:1025400000BF05F0B7FC0DE000BF00BF284603F058
:1025500009FA00BF06E000BF00BF284603F002FAF8
:1025600000BF00BF00BF05E0641CA348844201D344
:1025700000203EBDA74890F8A4010028F4D0002018
:10258000A44981F8A401D1F8A801A3A10CF0EDF9A8
:1025900040B1A04AB2F9A611D2F8A8010CF0DAF9BC
:1025A0000120E6E79B49D1F8A8019DA10CF0DDF9D7
:1025B00040B1984AB2F9A611D2F8A8010CF0CAF9B4
:1025C0000020D6E700BFD4E73EB500248DA207CA9D
:1025D0008DE807006846FFF749FA05E0641C864865
:1025E000844201D300203EBD844890F8A401002815
:1025F000F4D00020814981F8A401D1F8A80186A176
:102600000CF0B3F940B17D4AB2F9A611D2F8A80195
:102610000CF0A0F90120E6E77849D1F8A80180A1E3
:102620000CF0A3F940B1754AB2F9A611D2F8A8018D
:102630000CF090F90020D6E700BFD4E710B586B0C3
:102640000024142278A101A80CF06BF901A8FFF76F
:10265000F6F906E0641C6848844202D3002006B004
:1026600010BD6C4890F8A4010028F3D000206949FF
:1026700081F8A401D1F8A80170A10CF076F940B15D
:10268000644AB2F9A611D2F8A8010CF063F901204E
:10269000E5E76049D1F8A80169A10CF066F940B1FD
:1026A0005C4AB2F9A611D2F8A8010CF053F9002047
:1026B000D5E700BFD3E710B586B0002414225AA195
:1026C00001A80CF02EF901A8FFF7D0F906E0641C70
:1026D0004948844202D3002006B010BD474890F814
:1026E000A4010028F3D00020444981F8A401D1F8C6
:1026F000A80152A10CF039F940B1404AB2F9A61133
:10270000D2F8A8010CF026F90120E5E73B49D1F801
:10271000A8014BA10CF029F940B1384AB2F9A61131
:10272000D2F8A8010CF016F90020D5E700BFD3E7D6
:102730001FB5002443A30FCB8DE80F006846FFF7B9
:102740007EF906E0641C2C48844202D3002004B0C9
:1027500010BD304890F8A4010028F3D000202D4986
:1027600081F8A401D1F8A8013AA10CF0FEF840B11B
:10277000284AB2F9A611D2F8A8010CF0EBF8012012
:10278000E5E7244AB2F9A611D2F8A8010CF0E2F864
:102790000020DCE71FB500242AA30FCB8DE80F0033
:1027A0006846FFF763F906E0641C1348844202D3CD
:1027B000002004B010BD114890F8A4010028F3D007
:1027C00000200E4981F8A401D1F8A80121A10CF044
:1027D000CCF840B1094AB2F9A611D2F8A8010CF020
:1027E000B9F80120E5E7054AB2F9A611D2F8A80127
:1027F0000CF0B0F80020DCE7E0930400640B00204C
:102800000001002041542B4C494E4B3F0D0A000063
:10281000C4000020B40900204F6E4C696E650000B2
:102820004F66664C696E650041542B4155544F43C9
:102830004F4E4E3D4F4E0D0A000000004F4E00001F
:102840004F46460041542B48494245524E4154455B
:102850000D0A00004F4B000010B523460022FAA1DC
:10286000FD4805F0A8FC10BD0EB500BF00BF53E049
:102870004FF40051F94800F07EFF02A800216423C4
:102880000A46CDE9001008460BF0B1F84FF40051AC
:10289000F24800F06EFF02A8002164230A46CDE949
:1028A000001008460BF0A3F84FF40051EB4800F07D
:1028B00062FF02A8002164230A46CDE90010084601
:1028C0000BF095F84FF40051E44800F052FF02A8D5
:1028D000002164230A46CDE9001008460BF087F872
:1028E0004FF40051DD4800F046FF02A800216423A8
:1028F0000A46CDE9001008460BF079F84FF4005174
:10290000D64800F036FF02A800210B460322CDE98D
:10291000001008460BF06BF8AAE70EB500BF00BF29
:1029200053E04FF48041CD4800F025FF02A800217C
:1029300064230A46CDE9001008460BF058F84FF41E
:102940008041C64800F015FF02A8002164230A4612
:10295000CDE9001008460BF04AF84FF48041BF481B
:1029600000F009FF02A8002164230A46CDE9001007
:1029700008460BF03CF84FF48041B84800F0F9FEEF
:1029800002A8002164230A46CDE9001008460BF096
:102990002EF84FF48041B14800F0EDFE02A800216E
:1029A00064230A46CDE9001008460BF020F84FF4E6
:1029B0008041AA4800F0DDFE02A800210B46032258
:1029C000CDE9001008460BF012F8AAE70EB500BFDB
:1029D00000BF53E04FF40041A04800F0CCFE02A835
:1029E000002164230A46CDE9001008460AF0FFFFE3
:1029F0004FF40041994800F0BCFE02A80021642376
:102A00000A46CDE9001008460AF0F1FF4FF40041F4
:102A1000924800F0B0FE02A8002164230A46CDE9E6
:102A2000001008460AF0E3FF4FF400418B4800F025
:102A3000A0FE02A8002164230A46CDE90010084642
:102A40000AF0D5FF4FF40041844800F094FE02A83C
:102A5000002164230A46CDE9001008460AF0C7FFAA
:102A60004FF400417D4800F084FE02A800210B468F
:102A70000322CDE9001008460AF0B9FFAAE710B515
:102A80008AB0002409A8032100220592CDE906217D
:102A90000890104680210C22714BCDE90132CDE91E
:102AA000031007200023AFF2DB026EA100907148F3
:102AB00009F090F809A8032100220592CDE906212A
:102AC0000890104680210C226B4BCDE90132CDE9F4
:102AD000031007200023AFF2BD1268A100906B48DD
:102AE00009F078F809A8032100220592CDE9062112
:102AF0000890104680210C22654BCDE90132CDE9CA
:102B0000031007200023AFF29F2262A100906548C6
:102B100009F060F809A957480AF0E6FB09A95B48E3
:102B20000AF0E2FB09A95F480AF0DEFB0AB010BD1B
:102B30000EB500240025002666E002A8002104232B
:102B40000A46CDE900100121434805F0F4FC804617
:102B50004FF6FF70844202DA601C84B200E0002469
:102B6000FDF7F1FEFDF7B4FF4F48D0F8A801077854
:102B70004D48D0F8A8010078CC280DD14A48D0F8AB
:102B8000A8014078CC2807D14749D1F8A8011421E1
:102B9000FEF783FF681CC5B2434AB2F9A611D2F80A
:102BA000A8010BF0D7FE414A41492046FEF7EEFF4F
:102BB000701CC6B2C82D05D14FF40041274800F063
:102BC000DAFD07E0D22D05D14FF40041234800F093
:102BD000D0FD0026C82E05D14FF480411F4800F0DB
:102BE000CAFD07E0D22E05D14FF480411B4800F00A
:102BF000C0FD002602A8002114230A46CDE90010DA
:102C000008460AF0F4FE00BF97E710B58AB000242A
:102C100009A8032100220592CDE90621089010465B
:102C20004FF480711922234BCDE90132CDE9031015
:102C300006200023AFF207121FA10090234808F0DE
:102C4000C9FF0AB010BD00004D656173757265451E
:102C500076656E7400000000D41F0020000C014057
:102C6000000E0020424C454420426C696E6B20747B
:102C700061736B003C0D0020C4100020474C45449C
:102C800020426C696E6B207461736B000010002031
:102C900088130020524C454420426C696E6B2074AE
:102CA00061736B00C4120020B40900200C000020E6
:102CB000060000204C1600204765745F4D50555F9C
:102CC00044617461207461736B00000088150020FA
:102CD0000EB500BF00BF30E000BFFEF7B3FF002815
:102CE000FBD0FFF7F4FB044600BFFFF723F80028F2
:102CF000FBD0012C0CD102A9484809F067FD02A9BC
:102D000047480AF0F1FA0120464981F8A3010BE097
:102D100002A942480AF0E8FA02A9414809F056FD22
:102D20000020404981F8A30102A800210B4605229A
:102D3000CDE9001008460AF05AFECDE710B58AB07A
:102D4000002409A8032100220592CDE9062108905C
:102D5000104680210C22344BCDE90132CDE903101D
:102D600005200023AFF2970230A10090354808F00B
:102D700031FF0AB010BD0EB500BF00BF30E000BF8C
:102D8000FEF79CFF0028FBD0FFF71EFC044600BFA7
:102D9000FFF70AF80028FBD0012C0CD102A92A4821
:102DA00009F014FD02A91E4809F010FD0120274971
:102DB00081F8A3010BE002A923480AF095FA02A9C1
:102DC00017480AF091FA0020204981F8A30102A8CF
:102DD00000210B460522CDE9001008460AF007FE47
:102DE000CDE710B58AB0002409A80321002205927E
:102DF000CDE906210890104680210C22144BCDE924
:102E00000132CDE9031005200023AFF2950211A194
:102E10000090164808F0DEFE0AB010BD3C0D002000
:102E200088150020B4090020101B0020436865634A
:102E30006B424C45315F4C494E4B73746120746159
:102E4000736B00004C1A002000100020640B00205F
:102E5000D41D0020436865636B424C45325F4C498A
:102E60004E4B737461207461736B0000101D002061
:102E700010B50121080701F09CF8012001F07AFC4F
:102E800001F097FC10BD10B50120FEF74AFD00BF10
:102E9000FEF7D8FE0028FBD000BFFFF749FC002852
:102EA000FBD00120FEF750FD00BFFEF707FF002812
:102EB000FBD000BFFFF76EFC0028FBD0FEF7A9F99E
:102EC000FEF76BF900214FF4FE7001F07FF8FFF779
:102ED000CFFF10BD70B500244FF400512C4800F016
:102EE0004AFC1BE001212B4800F029FC0546012D7E
:102EF0000CD1601CC4B2142000F0FDF8642C0CDB73
:102F00006903234800F037FC012070BD4FF40051E5
:102F10001F4800F02EFC0020F7E700BFE2E71FB5D6
:102F20000121052001F038F80120ADF80C0028201F
:102F30008DF80F0003A9174800F06EFB002108462A
:102F400000F080FC0120009000208DF80400082093
:102F50008DF8050001208DF80600684601F092F812
:102F60004FF4A06000F08AFA06208DF808000320D4
:102F70008DF809008DF80A0001208DF80B0002A8D9
:102F800000F081FAFFF7A6FF08B9FFF771FF1FBD38
:102F9000000C01400008014008B50121082000F0A4
:102FA000FBFF4FF46040ADF8000010208DF80300E7
:102FB00003208DF802006946124800F02DFB012124
:102FC000082000F0E9FF4FF48050ADF800004820E1
:102FD0008DF8030003208DF802006946094800F0CF
:102FE0001BFB4FF40051074800F0C3FB4FF4804136
:102FF000044800F0BEFB4FF40041024800F0B9FB6A
:1030000008BD0000000C014008B5684604F090FAC5
:1030100008BD08B5684604F0D5FA08BD38B50446C1
:103020006A46082120460AF05DFC38BD10B55248BA
:103030000078012805D104F0C1F90AF0DFFE04F0A0
:10304000CEF910BD10B56FF0040000F066FA4B48E1
:1030500000684B49B0FBF1F04A49087047480068E6
:103060004749B0FBF1F448480068C910B1FBF0F0E3
:103070004443454800684FF47A71B1FBF0F043498E
:1030800008804FF0E020006940F002004FF0E0219E
:10309000086108464461006940F00100086110BD04
:1030A0002DE9F047074600264FF0E020D0F81490B5
:1030B0003448007807FB00F800BFFFF7A5FF4FF08A
:1030C000E020856911E04FF0E0208469AC420CD02B
:1030D000AC4202D2281B064403E0A9EB04002844BA
:1030E00006442546464500D300E0ECE700BFFFF765
:1030F00090FFBDE8F08770B504461F480078A0B186
:103100002348007888B921480088844206DB1F489C
:10311000008894FBF0F52846FFF780FF1B480088E5
:1031200094FBF0F100FB114084B24FF47A7104FB80
:1031300001F0FFF7B5FF70BD014605E0002001E09A
:10314000421CD0B20A28FBDB0A00A1F10101F5D133
:10315000704710B5044603E04FF47A70FFF7ECFFB8
:103160002000A4F10104F7D110BD00BF0100A0F1BF
:103170000100FBD170470000B90000206000002072
:1031800000127A005A00002094F100085C00002030
:10319000B80000201FB501210C2000F0FDFE4FF407
:1031A0008050ADF80C0004208DF80F0003A92C48C6
:1031B00000F032FA0C21012000F044FB4FF4805063
:1031C000009000208DF804000C208DF805000120EF
:1031D0008DF80600684600F055FF4FF4E06000F0FF
:1031E0004DF928208DF8080002208DF809000320F1
:1031F0008DF80A0001208DF80B0002A800F043F9B9
:103200000120ADF80C0028208DF80F0003A9154807
:1032100000F002FA0021084600F014FB01200090A3
:1032200000208DF8040008208DF8050001208DF89D
:103230000600684600F026FF4FF4E06000F01EF93B
:1032400006208DF8080002208DF809008DF80A008C
:1032500001208DF80B0002A800F015F91FBD000039
:10326000000C01400008014006488047064800471E
:10327000FEE7FEE7FEE7FEE7FEE7FEE7FEE7FEE726
:10328000FEE7FEE76B330008ED0000080CB50020F8
:10329000019000906E48006840F480306C490860EE
:1032A00000BF6B48006800F4003000900198401C9B
:1032B0000190009818B90198B0F5A06FF1D1644859
:1032C000006800F4003010B10120009001E00020FF
:1032D00000900098012843D15E48006840F010003B
:1032E0005C4908600846006820F003000860084652
:1032F000006840F002000860554840685449486042
:103300000846406848600846406840F4806048606D
:103310000846406820F47C1048600846406840F445
:10332000881048600846006840F08070086000BF60
:103330004748006800F000700028F9D04448406811
:1033400020F00300424948600846406840F002000F
:10335000486000BF3E48406800F00C000828F9D1E2
:103360000CBD10B5FFF792FF10BD10B538480068CE
:1033700040F0010036490860084640683649084078
:1033800033494860084600683449084030490860BD
:103390000846006820F4802008600846406820F451
:1033A0007C1048600846406840F4881048604FF43C
:1033B0001F008860FFF7D5FF4FF0006028490860C4
:1033C00010BD10B5002100200022214B5B6803F0E6
:1033D0000C0121B1042906D0082928D107E0214B8E
:1033E000214C236027E0214B1F4C236023E0184B26
:1033F0005B6803F47010164B5B6803F480320223A1
:1034000003EB904022B91A4B4343174C23600DE065
:103410000F4B5B6803F4003323B1164B4343124C4C
:10342000236003E0114B43430F4C236003E00D4B3B
:103430000D4C236000BF00BF054B5B68C3F3031353
:103440000D4CE15C084B1B68CB40074C236010BD62
:1034500000100240002002400000FFF8FFFFF6FECF
:1034600008ED00E000127A0060000020001BB700A9
:1034700000093D00808D5B0064000020314901435C
:10348000314A1160704770B5002100230F22C478C3
:1034900004B32D4C246804F4E064C4F5E064210A0C
:1034A000C1F10403CA40447804FA03F1847814405B
:1034B00021430901254C0678A155047804F01F0525
:1034C0000124AC4005786D11AD0005F1E025C5F88B
:1034D000004109E0047804F01F050124AC401C4DB4
:1034E0000678761145F8264070BD1A4A0A40024314
:1034F000154B1B1F1A60704739B1134A121D126811
:103500000243114B1B1D1A6006E00F4A121D126880
:1035100082430D4B1B1D1A607047042808D14FF0E1
:10352000E021096941F004014FF0E022116107E058
:103530004FF0E021096921F004014FF0E022116110
:10354000704700000000FA050CED00E000E400E028
:1035500080E100E080FFFF1F10B50446CC488442A4
:1035600008D10121042000F031FD0021042000F0E9
:103570002DFD46E0C748844208D10121082000F013
:1035800025FD0021082000F021FD3AE0C2488442D8
:1035900008D10121102000F019FD0021102000F0B9
:1035A00015FD2EE0BD48844208D10121202000F005
:1035B0000DFD0021202000F009FD22E0B8488442E2
:1035C00008D10121402000F001FD0021402000F041
:1035D000FDFC16E0B348844208D10121802000F0B0
:1035E000F5FC0021802000F0F1FC0AE0AE488442A6
:1035F00007D10121801500F0E9FC0021A01500F0A1
:10360000E5FC10BD10B50121084600F0DFFC0021EB
:10361000012000F0DBFC10BD2DE9F0410246002541
:103620000026002000230024002791F803C00CF09E
:103630000F0591F803C00CF0100CBCF1000F03D083
:1036400091F802C04CEA050591F800C0BCF1000FEA
:1036500031D0146800202BE04FF0010C0CFA00F37D
:10366000B1F800C00CEA03069E4220D183004FF05F
:103670000F0C0CFA03F7BC4305FA03FC4CEA0404F4
:1036800091F803C0BCF1280F06D14FF0010C0CFAE1
:1036900000FCC2F814C00AE091F803C0BCF1480F66
:1036A00005D14FF0010C0CFA00FCC2F810C0401C10
:1036B0000828D1D31460B1F800C0BCF1FF0F34DD8D
:1036C000546800202EE000F1080C4FF0010808FAC1
:1036D0000CF3B1F800C00CEA03069E4221D183002E
:1036E0004FF00F0C0CFA03F7BC4305FA03FC4CEA4D
:1036F000040491F803C0BCF1280F05D100F1080CB7
:1037000008FA0CF8C2F8148091F803C0BCF1480F15
:1037100007D100F1080C4FF0010808FA0CF8C2F8C4
:103720001080401C0828CED35460BDE8F0814FF6CD
:10373000FF710180022181700421C170704702462F
:10374000002093680B400BB1012000E0002070477F
:103750000146886880B2704702460020D3680B405B
:103760000BB1012000E0002070470146C86880B21C
:10377000704701617047416170470AB1016100E023
:1037800041617047C16070474FF480320A438261E3
:103790008161826182698269704702460020434BE1
:1037A00018684FF68073184040EA021008433F4BF8
:1037B000186070473E49C8617047F0B50A4600235B
:1037C00000240021002500F00046B6F1004F02D190
:1037D000364EF16901E0354E7168C0F3034583B29E
:1037E00000F44016B6F5401F08D121F070612F4E4D
:1037F000766826F070662D4F7E6012E000F4801629
:10380000B6F5801F06D1032606FA05F4A14341F060
:10381000706106E0460D360103FA06F6B14341F049
:10382000706122B1460D360103FA06F6314300F00D
:103830000046B6F1004F02D11C4EF16101E01B4E73
:103840007160F0BD30B500228B071C0F0F2303FA07
:1038500004F2164B08338C1053F824309343134C66
:1038600008348D1044F8253023468C1053F824304A
:103870008C07240F00FA04F423430C4C08348D10F9
:1038800044F8253030BD0A49DC310860704700003B
:1038900000080140000C01400010014000140140EC
:1038A00000180140001C01400020014000000140C0
:1038B0000000204210B50446FB48844209D1012192
:1038C000880300F083FB00214FF4804000F07EFB72
:1038D00032E0F648844209D10121480400F083FB1C
:1038E00000214FF4003000F07EFB25E0F0488442D8
:1038F00009D10121880400F076FB00214FF48020DB
:1039000000F071FB18E0EB48844209D10121C804A2
:1039100000F069FB00214FF4002000F064FB0BE095
:10392000E548844208D10121080500F05CFB002134
:103930004FF4801000F057FB10BD2DE9F04786B022
:1039400005460E460024A24600BFA1460027B089C6
:1039500000B100BF2F462C8A4CF6FF700440F0885F
:1039600004432C82AC894EF6F3100440B0883189B0
:103970000843718908430443AC81AC8A4FF6FF4089
:103980000440B0890443AC8201A800F098FAC6480C
:10399000874202D1DDF810A001E0DDF80CA0A88973
:1039A00000F4004040B10AEBCA0000EB0A10316895
:1039B0004900B0FBF1F807E00AEBCA0000EB0A107F
:1039C00031688900B0FBF1F86420B8FBF0F0040125
:1039D0002009642101FB1089A88900F4004040B14E
:1039E000322000EBC900B0FBF1F000F00700044307
:1039F00008E0322000EB09106421B0FBF1F000F088
:103A00000F0004432C8106B0BDE8F0874FF4165137
:103A1000016000218180C18001810C214181002150
:103A20008181704710B502460020108A4FF2FF03D3
:103A300018400B884C8823438C882343CC8823432D
:103A40001843108210BD0021018041808180C18017
:103A5000704721B1828942F40052828104E0828958
:103A60004DF6FF731A4082817047F0B5034600247B
:103A700000260025002040F66A17B94200D100BF99
:103A80001846C1F3421401F01F06012707FA06F594
:103A9000012C01D10C3004E0022C01D1103000E0E7
:103AA00014301AB107682F43076002E00768AF437C
:103AB0000760F0BD1AB1838A0B43838202E0838AD8
:103AC0008B4383827047028A4FF6F0731A4002825A
:103AD000028A0A430282704782894FF2FF731A40BA
:103AE000828182890A438281704721B1828942F0B2
:103AF0000202828104E082894FF6FD731A408281BE
:103B00007047028A4FF6DF731A400282028A0A4324
:103B10000282704721B1028A42F48042028204E0AC
:103B2000028A4BF6FF731A4002827047C1F3080203
:103B30008280704701468888C0F3080070478189F9
:103B400041F0010181817047028BD2B20283028B66
:103B500042EA012202837047028B02F47F42028311
:103B6000028B0A430283704721B1828A42F020020D
:103B7000828204E0828A4FF6DF731A4082827047A5
:103B800021B1828A42F01002828204E0828A4FF6DA
:103B9000EF731A408282704721B1828A42F0080294
:103BA000828204E0828A4FF6F7731A40828270475D
:103BB00021B1828942F40042828103E08289C2F30A
:103BC0000E028281704721B1828A42F400628282B1
:103BD00004E0828A4FF2FF731A4082827047828A21
:103BE0004FF6FB731A408282828A0A4382827047B0
:103BF00021B1828A42F00202828204E0828A4FF678
:103C0000FD731A408282704702460020B1F5007FA2
:103C100000D100BF13880B400BB1012000E0002051
:103C2000704701F40072B2F5007F00D100BFCA43B3
:103C30000280704770B50246002400230025002052
:103C400040F66A16B14200D100BFC1F3421501F03F
:103C50001F03012606FA03F3012D02D19689334092
:103C600006E0022D02D1168A334001E0968A3340E5
:103C70000C12012606FA04F41688344013B10CB174
:103C8000012000E0002070BD10B50022002340F6A6
:103C90006A14A14200D100BF0A1201249440A3B2C9
:103CA000DC43048010BD00000038014000440040A7
:103CB00000480040004C004000500040DF480068D1
:103CC00040F00100DD49086008464068DC490840D2
:103CD000DA49486008460068DA490840D749086070
:103CE0000846006820F4802008600846406820F4F8
:103CF000FE0048604FF41F0088607047CF49096894
:103D000021F48031CD4A11601146096821F48021E7
:103D10001160B0F5803F03D0B0F5802F0ED106E0E2
:103D2000C649096841F48031C44A116007E0C349BB
:103D3000096841F4A021C14A116000E000BF00BF42
:103D4000704710B501460022002300204A11012AC5
:103D500002D1BA4C236806E0022A02D1B74C236A8A
:103D600001E0B64C636A01F01F02012494401C403C
:103D70000CB1012000E0002010BD38B500200090FB
:103D80000024002500BF3120FFF7DBFF0546009827
:103D9000401C00900098B0F5A06F01D0002DF2D02B
:103DA0003120FFF7CEFF08B1012400E000242046B7
:103DB00038BD01460020A14A106820F0F80040EA12
:103DC000C10010607047A04908607047024600209B
:103DD0009A4B586820F47C1042EA01031843974B31
:103DE0005860704798490866704701460020934A1A
:103DF000506820F003000843506070478F484068C7
:103E000000F00C007047014600208C4A506820F0FA
:103E1000F00008435060704701460020874A506810
:103E200020F4E06008435060704701460020834A58
:103E3000506820F4605040EAC1005060704729B1DA
:103E40007E4A527A02437D4B5A7204E07B4A527A90
:103E500082437A4B5A7270477B49D8310860704769
:103E600001460020754A506820F4404008435060E5
:103E700070470021714A20321170704A82F8201078
:103E8000012802D004280AD104E001216B4A203223
:103E9000117005E00521694A2032117000E000BF71
:103EA00000BF70476949086070476449096A014367
:103EB000624A11627047654944390860704730B5FD
:103EC00000210022002400235C4D6D6805F00C01E8
:103ED00021B1042905D0082923D105E05C4D0560F6
:103EE00022E05C4D05601FE0544D6D6805F47012D2
:103EF000524D6D6805F48034022505EB92421CB9E1
:103F0000554D554305600BE04C4D6D6805F400358B
:103F10001DB1524D5543056002E04E4D55430560BD
:103F200002E04B4D056000BF00BF444D6D6805F0D9
:103F3000F00109094A4D6B5C0568DD4045603F4D65
:103F40006D6805F4E061090A454D6B5C4568DD402C
:103F500085603A4D6D6805F46051C90A404D6B5C4F
:103F60004568DD40C560354D6D6805F44041890BFD
:103F70003C4D6B5CC568B5FBF3F5056130BD29B1FF
:103F80002E4A526902432D4B5A6104E02B4A526972
:103F900082432A4B5A61704729B1284A92690243E9
:103FA000264B9A6104E0254A92698243234B9A6129
:103FB000704729B1214AD2690243204BDA6104E0FB
:103FC0001E4AD26982431D4BDA61704729B11B4AF0
:103FD000D2680243194BDA6004E0184AD26882437F
:103FE000164BDA60704729B1144A12690243134B29
:103FF0001A6104E0114A12698243104B1A6170473A
:1040000012494039086070470F49C86470470B492E
:10401000C87170470948406A40F08070074948629B
:10402000704701460020054A92680A400AB1012003
:1040300000E000207047014988727047001002407C
:104040000000FFF8FFFFF6FE0000424280044242FB
:1040500000127A00001BB70000093D00808D5B0054
:104060007400002084000020002044490860091DDD
:104070000860091D0860091D086041483F49143166
:104080000860704700213D498279002A3AD00A46EB
:10409000126803689A430B461A600A1D1268036887
:1040A0009A430B1D1A60027911440A6803681A4387
:1040B0000A60324A0832126803689A432F4B083369
:1040C0001A601A1D126803689A432C4B0C331A604D
:1040D0004279102A0ED11A1F126803681A43274B1F
:1040E00008331A601A1D126803681A43234B0C33F5
:1040F0001A600DE02149427911440A6803681A43A5
:104100000A6005E0027911440A6803689A430A606C
:1041100070470021016001710C2141710021817102
:1041200070471649103109680143144A1032116072
:10413000704701460020114A143212680A400AB141
:10414000012000E0002070470C49143108607047DE
:10415000014600200022094B1B6803EA0102074BBD
:1041600014331B680B4013B10AB1012000E000209A
:104170007047024914310860704700000004014094
:10418000FFFF0F0001460020FE4A106800F03800D3
:10419000084310607047FB49096821F00801F94A9B
:1041A000116011460968014311607047F5490968BB
:1041B00021F01001F34A11601146096801431160B2
:1041C0007047F148EF494860F04848607047EE4852
:1041D000EC494860ED4848607047EA48006940F0A3
:1041E0008000E84908617047E648006940F08000B7
:1041F000E449086170470420E249C96801F00101FF
:1042000009B101200EE0DF49C96801F0040109B1DC
:10421000022007E0DB49C96801F0100109B1032061
:1042200000E00420704700B502460423FFF7E3FFD7
:10423000034603E0FFF7DFFF0346521E012B01D1C7
:10424000002AF7D102B90523184600BD30B504464F
:1042500004254FF43020FFF7E6FF0546042D17D163
:10426000C848006940F00200C64908610846446138
:10427000006940F0400008614FF43020FFF7D3FFA1
:104280000546C048006941F6FD710840BD49086116
:10429000284630BD10B504244FF43020FFF7C3FF8B
:1042A0000446042C16D1B748006940F00400B54913
:1042B00008610846006940F0400008614FF4302072
:1042C000FFF7B1FF0446AF48006941F6FB710840B3
:1042D000AC490861204610BD00B502460423FFF733
:1042E0008AFF034603E0FFF786FF0346521E012BB9
:1042F00001D1002AF7D102B90523184600BD10B537
:1043000004244FF43020FFF7E7FF0446042C16D1B5
:104310009C48006940F004009A4908610846006919
:1043200040F0400008614FF43020FFF7D5FF04460D
:104330009448006941F6FB710840924908612046A3
:1043400010BD00208F49C96901F0020109B10120A7
:1043500000E00020704730B5A5250424FFF7F1FFE9
:1043600000B100254FF43020FFF75DFF0446042C18
:104370003AD1854883498860844888600846006946
:1043800040F0200008610846006940F040000861E4
:104390004FF43020FFF747FF0446042C1BD1794827
:1043A000006941F6DF7108407649086108460069F6
:1043B00040F01000086176480580E002FFF733FF07
:1043C0000446052C10D06F48006941F6EF71084093
:1043D0006C49086108E0052C06D06A48006941F67E
:1043E000EF71084067490861204630BD78B5064640
:1043F0000C46042500200090E802FFF714FF054654
:10440000042D24D15F48006940F001005D49086136
:104410003480E802FFF707FF0546042D10D1B01CD9
:104420000090200C00990880E802FFF7FCFE05468A
:104430005448006941F6FE7108405249086106E09F
:104440005048006941F6FE7108404E49086128460F
:1044500078BD70B504460D460426F002FFF7E3FE72
:104460000646042E11D14748006940F00100454935
:1044700008612580F002FFF7D6FE06464148006934
:1044800041F6FE7108403F490861304670BD70B585
:1044900005460E460424E002FFF7C5FE0446042C40
:1044A00017D139483749886038488860084600691C
:1044B00040F0100008612E80E002FFF7B4FE0446D1
:1044C000052C06D02F48006941F6EF7108402D49B0
:1044D0000861204670BD2DE9F04304464FF6FF7693
:1044E0003746B046B1460425E443E6B2C4F3072795
:1044F000C4F307484FEA1469E802FFF794FE054643
:10450000042D49D120481F4988602048886008460A
:10451000006940F010000861FF2E06D01C480830EA
:104520000680E802FFF77FFE0546042D08D1FF2F25
:1045300006D017480A300780E802FFF774FE0546E8
:10454000042D0AD1B8F1FF0F07D011480C30A0F8A4
:104550000080E802FFF767FE0546042D0AD1B9F195
:10456000FF0F07D00A480E30A0F80090E802FFF7CE
:104570005AFE0546052D0FD00248006941F6EF713D
:10458000084007E00020024023016745AB89EFCDDA
:1045900000F8FF1F664908612846BDE8F08330B582
:1045A000054604244FF43020FFF73DFE0446042C5A
:1045B00041D160485E4988605F488860084600696C
:1045C00040F0200008610846006940F040000861A2
:1045D0004FF43020FFF727FE0446042C22D1544824
:1045E000006941F6DF7108405149086108460069D9
:1045F00040F0100008611DB100205049088002E021
:10460000A5204E4908804FF43020FFF70CFE0446E9
:10461000052C10D04648006941F6EF710840444926
:10462000086108E0052C06D04148006941F6DF71B9
:1046300008403F490861204630BDF0B505460E46AA
:10464000174604243B483A4988603B488860E002AA
:10465000FFF7E9FD0446042C19D13548006940F004
:1046600010003349086147F0F800304328433349CC
:10467000891C0880E002FFF7D6FD0446052C06D011
:104680002B48006941F6EF7108402949086120462E
:10469000F0BD2748C069800870472548006A704708
:1046A00000202349096801F0200109B1012000E040
:1046B0000020704729B11E4A126902431C4B1A613F
:1046C00004E01B4A12698243194B1A617047014684
:1046D0000020012908D1164AD26902F001020AB16C
:1046E000012008E0002006E0114AD2680A400AB121
:1046F000012000E0002070470D49C8607047042089
:104700000B49C96801F0010109B101200EE0084917
:10471000C96801F0040109B1022007E00449C96831
:1047200001F0100109B1032000E0042070470000EF
:104730000020024023016745AB89EFCD00F8FF1F41
:1047400010B501210807FFF74EFC00214FF0805003
:10475000FFF749FC10BD2A490862704728490861E3
:10476000704701460020274A106820F0E000084307
:10477000106070472249A0310860704710B50246AA
:104780000020204B186820F00300104318601E4BD7
:104790001B6843F004031C4C2360012901D130BF86
:1047A00000E020BF184B1B6823F00403164C236065
:1047B00010BD1448006840F0040012490860084623
:1047C000006840F0020008600F48006840F00400F4
:1047D0000D49086000BF00BF30BF70470146002090
:1047E000084A52680A400AB1012000E000207047E0
:1047F0000449096841EA8001024A116070470000DB
:1048000000000E420070004010ED00E010B50446BC
:10481000FE48844208D10121C014FFF7D7FB0021D4
:10482000E014FFF7D3FBC4E0B4F1804F08D10121BD
:104830000846FFF7D8FB00210120FFF7D4FBB8E0C2
:10484000F348844208D101210220FFF7CCFB00216C
:104850000220FFF7C8FBACE0EE48844208D10121FA
:104860000420FFF7C0FB00210420FFF7BCFBA0E001
:10487000E948844208D101210820FFF7B4FB002158
:104880000820FFF7B0FB94E0E448844208D10121FE
:104890001020FFF7A8FB00211020FFF7A4FB88E001
:1048A000DF48844208D101212020FFF79CFB002132
:1048B0002020FFF798FB7CE0DA48844208D10121F0
:1048C0004014FFF783FB00216014FFF77FFB70E0CB
:1048D000D548844209D10121C804FFF777FB0021A4
:1048E0004FF40020FFF772FB63E0D048844209D107
:1048F00001210805FFF76AFB00214FF48010FFF744
:1049000065FB56E0CA48844209D101214805FFF7FA
:104910005DFB00214FF40010FFF758FB49E0C5484C
:10492000844208D101214020FFF75DFB0021402097
:10493000FFF759FB3DE0C048844208D101218020A7
:10494000FFF751FB00218020FFF74DFB31E0BB4812
:10495000844208D101218015FFF745FB0021A015F5
:10496000FFF741FB25E0B648844209D10121080444
:10497000FFF72CFB00214FF48030FFF727FB18E0F6
:10498000B048844209D101214804FFF71FFB0021F0
:104990004FF40030FFF71AFB0BE0AB48844208D11C
:1049A00001218804FFF712FB00214FF48020FFF75C
:1049B0000DFB10BD00220288944B98420ED0994BFB
:1049C00098420BD0B0F1804F08D0914B984205D05F
:1049D000904B984202D0904B984204D14FF68F737F
:1049E0001A404B881A438D4B984207D08C4B984203
:1049F00004D04FF6FF431A40CB881A4302808B88BD
:104A000083850B880385814B98420BD0854B984258
:104A100008D08B4B984205D08A4B984202D08A4BE3
:104A2000984201D10B7A038601238382704770B5C7
:104A3000002400220023058C4FF6FE7635400584C5
:104A4000028C8388048B4FF68F752C40B51E2C404A
:104A50000D882C43751E2A400D892A434D882A4310
:104A60006A4DA8420BD06F4DA84208D0744DA842A1
:104A700005D0744DA84202D0734DA84213D14FF611
:104A8000F7752A404D892A434FF6FB752A408D88D9
:104A90002A434FF6FF652B404FF6FF552B408D897B
:104AA0002B43CD892B4383800483CD888586028464
:104AB00070BD70B5002400220023058C4FF6EF7600
:104AC00035400584028C8388048B48F6FF752C40A2
:104AD0004FF6FF452C400D884FF6FF7606EA052578
:104AE0002C434FF6DF752A400D8906EA05152A4347
:104AF0004D8806EA05152A43444DA84202D0494D87
:104B0000A8421DD14FF67F752A404D894FF6FF769A
:104B100006EA05152A434FF6BF752A408D8806EA36
:104B200005152A434FF6FF352B404FF2FF752B40FA
:104B30008D8906EA85052B43CD8906EA85052B4339
:104B400083800483CD880587028470BD70B50024FE
:104B500000220023058C4FF6FF6635400584028C49
:104B60008388848B4FF68F752C404FF6FC752C4054
:104B70000D882C434FF6FF552A400D894FF6FF76DE
:104B800006EA05252A434D8806EA05252A431F4DD6
:104B9000A84202D0234DA8421DD14FF2FF752A40F2
:104BA0004D894FF6FF7606EA05252A434FF6FF3575
:104BB0002A408D8806EA05252A434EF6FF752B40CC
:104BC0004DF6FF752B408D8906EA05152B43CD89DF
:104BD00006EA05152B4383808483CD88858702846C
:104BE00070BD70B5002200230024058C4EF6FF76C0
:104BF00035400584038C8488828B48F6FF752A40F3
:104C00004FF6FF452A400D8820E00000002C0140AF
:104C10000004004000080040000C0040001000406C
:104C20000014004000340140004C0140005001409D
:104C30000054014000180040001C004000200040CB
:104C40000040014000440140004801404FF6FF761B
:104C500006EA05252A434DF6FF752B400D8906EA25
:104C600005352B434D8806EA05352B43FA4DA842FE
:104C700002D0FA4DA84208D14BF6FF752C408D8921
:104C80004FF6FF7606EA85152C4384808283CD8813
:104C9000A0F84050038470BD828B4FF2FF331A405E
:104CA0008283828B4FF6FF7303EA01231A438283C8
:104CB0007047F0B50C461546002200210026078CEF
:104CC0004EF6FF7C07EA0C070784828B018C4FF6B7
:104CD000FF7707EA043640F6FF473A404FF6FF7782
:104CE00007EA05273A434FF6FF7707EA03373A43C7
:104CF000D94FB8420ED0D94FB8420BD0B0F1804F47
:104D000008D0D74FB84205D0D64FB84202D0D64FC0
:104D1000B84206D14DF6FF77394046F48057394303
:104D200005E047F6FF57394044F480573943828302
:104D30000184F0BD828B4FF6F3731A408283828B1D
:104D40000A4382837047F0B50C46154600220021C5
:104D50000026078C4FF6FF6C07EA0C070784828B4E
:104D6000018C4FF6FF7707EA04264FF60C773A409E
:104D70004FF6FF7707EA03172F433A43B64FB8427F
:104D80000ED0B64FB8420BD0B0F1804F08D0B44F20
:104D9000B84205D0B34FB84202D0B34FB84206D1A3
:104DA0004FF6FF57394046F48077394305E04FF21C
:104DB000FF57394044F48077394382830184F0BD42
:104DC000028B4FF2FF331A400283028B4FF6FF73C0
:104DD00003EA01231A4302837047F0B50C461546D7
:104DE000002200210026078C4FF6EF7C07EA0C0713
:104DF0000784028B018C4FF6FF7707EA041640F612
:104E0000FF473A404FF6FF7707EA03373A434FF63A
:104E1000FF7707EA05273A438F4FB8420ED08F4FEE
:104E2000B8420BD0B0F1804F08D08D4FB84205D0BA
:104E30008C4FB84202D08C4FB84206D14FF6DF7784
:104E4000394046F01007394305E04FF65F773940A7
:104E500044F01007394302830184F0BD028B4FF602
:104E6000F3731A400283028B0A4302837047F0B542
:104E70000C46154600220021068C4FF6FE773E4078
:104E80000684028B018C4FF60C7632407E1C06EABB
:104E900003162E433243704EB0420ED06F4EB042D6
:104EA0000BD0B0F1804F08D06D4EB04205D06D4EA2
:104EB000B04202D06C4EB04206D14FF6FD76314082
:104EC00044F00106314305E04FF6F576314044F0F9
:104ED0000106314302830184F0BD70B505460C46DE
:104EE0005D4885420ED05D4885420BD0B5F1804FBC
:104EF00008D05B48854205D05A48854202D05A48BE
:104F0000854200D100E000BF208850B92389A288E3
:104F100061882846FFF7ABFFE1882846FFF79EFF30
:104F200025E0208804280AD12389A28861882846A0
:104F3000FFF753FFE1882846FFF742FF17E020887C
:104F400008280AD12389A28861882846FFF7FBFE3A
:104F5000E1882846FFF7EEFE09E02389A2886188F0
:104F60002846FFF7A6FEE1882846FFF795FE70BDAC
:104F70002DE9F04105460C4600260127608808B956
:104F8000022600E00026A088012801D1022700E0C7
:104F900001272088A0B92389A28861882846FFF7C5
:104FA00066FFE1882846FFF759FF23893A463146D4
:104FB0002846FFF712FFE1882846FFF701FF13E0BC
:104FC0002389A28861882846FFF707FFE1882846E1
:104FD000FFF7F6FE23893A4631462846FFF747FF9A
:104FE000E1882846FFF73AFFBDE8F0810A884B8840
:104FF0001A438B881A43CB881A430B891A434B896F
:105000001A438B891A43A0F8442070474FF6FF716A
:10501000818000210180C1804180017270470021A0
:10502000018041808180C180018141818181C18174
:105030007047002101804180012181800021C180D1
:10504000018170470021018041808180C180018100
:105050004181818170470000002C014000340140F3
:105060000004004000080040000C004021B102880C
:1050700042F00102028004E002884FF6FE731A40FB
:105080000280704731B1B0F8442042F40042A0F8E9
:10509000442005E0B0F84420C2F30E02A0F84420FA
:1050A00070471AB183890B43838102E083898B4364
:1050B000838170478182704741EA0203A0F848303B
:1050C00070471AB183890B43838102E083898B4344
:1050D0008381704701894FF6F87211400181704752
:1050E0000A46002101894FF68F731940114301814F
:1050F000704730B504460D4629462046FFF7F0FFBD
:10510000208940F00700208130BD2DE9F0410446A0
:105110000D4616461F46602D06D13B4601223146FC
:105120002046FFF75AFE05E03B4601223146204665
:10513000FFF79DFE29462046FFF7D2FF208940F069
:1051400007002081BDE8F08130B50C4600210189BF
:10515000C9B24FF6FF7505EA0325154325432943D8
:10516000018130BD2DE9F04105460E4617469846AF
:10517000002443463A4631462846FFF7E5FF2C898E
:105180004FF6F870044044F007044FF68F70044067
:1051900044F070042C81BDE8F081F0B504460D4662
:1051A00016461F463B46324629462046FFF7CCFFAF
:1051B000208940F480402081F0BD018582827047C3
:1051C0000A46002101884FF68F7319401143018070
:1051D0007047F0B50C4615461E46002100220023FC
:1051E0000189028B038C4FF6F877394021434FF643
:1051F000FC473A4040F201173A434FF6DD773B4017
:105200004FF6FF7707EA06172F433B4301810283DE
:105210000384F0BD0A460021018B4FF68F731940BD
:105220001143018370470A460021018B48F6FF7342
:1052300019404FF6FF7303EA0223194301837047B5
:105240000A460021818B4FF68F73194011438183E9
:1052500070470A460021818B48F6FF7319404FF6CC
:10526000FF7303EA022319438183704721B1028847
:1052700042F08002028004E002884FF67F731A40F9
:105280000280704721B1828842F00402828004E0EB
:1052900082884FF6FB731A408280704721B1828862
:1052A00042F00802828004E082884FF6F7731A40C9
:1052B0008280704721B1828842F00102828004E03E
:1052C00082884FF6FE731A40828070470A4600219A
:1052D000018B4FF6F77319401143018370470A465B
:1052E0000021018B4FF2FF7319404FF6FF7303EA61
:1052F00002231943018370470A460021818B4FF630
:10530000F77319401143818370470A460021818B4E
:105310004FF2FF7319404FF6FF7303EA022319435C
:10532000818370470A460021018B4FF6FB731940B9
:105330001143018370470A460021018B4FF6FF336A
:1053400019404FF6FF7303EA0223194301837047A4
:105350000A460021818B4FF6FB731940114381836C
:1053600070470A460021818B4FF6FF3319404FF6F4
:10537000FF7303EA02231943818370470A46002121
:10538000018B4FF67F7319401143018370470A4622
:105390000021018BC1F30E014FF6FF7303EA0223D4
:1053A0001943018370470A460021818B4FF67F73B2
:1053B00019401143818370470A460021818BC1F354
:1053C0000E014FF6FF7303EA0223194381837047EE
:1053D0000A460021018C4FF6FD73194011430184E8
:1053E00070470A460021018C4FF6F77319401143AC
:1053F000018470470A460021018C4FF6DF73194083
:105400004FF6FF7303EA02131943018470470A46FB
:105410000021018C4FF67F7319404FF6FF7303EAAA
:1054200002131943018470470A460021018C4FF68C
:10543000FF5319404FF6FF7303EA02231943018417
:1054400070470A460021018C4FF2FF7319404FF656
:10545000FF7303EA02231943018470470A460021BF
:10546000018C4DF6FF7319404FF6FF7303EA0233C8
:1054700019430184704730B5002301248C40A3B246
:10548000048C9C430484048C02FA01F5ADB22C43D5
:10549000048430BD30B5002304248C40A3B2048CB6
:1054A0009C430484048C02FA01F5ADB22C430484BD
:1054B00030BD70B503460020002418461830012581
:1054C0008D40ACB21D8CA5431D8409B1082909D1BA
:1054D00000EB6100056825F070050560056815435F
:1054E00005600EE00D1FC5F34E052844056825F440
:1054F000E045056005684FF6FF7606EA022635436B
:10550000056070BD21B1028842F00202028004E011
:1055100002884FF6FD731A400280704721B102885D
:1055200042F00402028004E002884FF6FB731A4046
:105530000280704721B1828842F08002828004E0BC
:1055400082884FF67F731A408280704702884FF638
:10555000F7731A40028002880A43028070478288EB
:105560004FF68F731A40828082880A438280704788
:1055700002894FF6F8731A40028102890A430281B8
:10558000704702894FF67F731A40028102890A43ED
:10559000028170478184704781857047818670479A
:1055A0000187704781877047A0F8401070470288D4
:1055B0004FF6FF431A40028002880A430280704778
:1055C0000146888E70470146088F70470146888FD4
:1055D00070470146B1F8400070470146888C70471B
:1055E0000146088D704702460020138A0B400BB11C
:1055F000012000E000207047CA430282704730B5A6
:105600000246002000230024158A05EA010395893B
:1056100005EA010413B10CB1012000E0002030BD07
:10562000CA4302827047000000B585B06846FEF7A5
:1056300046FC019805B000BD10B5FFF7F5FF044624
:105640001748006840F0807015490860002015492F
:1056500048600846006840F001000860204600F0FD
:10566000B6F810BD0F49486870472DE9F0478246EB
:10567000FFF7DAFF4FF0000980460B4A002340464F
:10568000494609F01DF9064632460B4650460021B0
:1056900009F016F904460D4620462946BDE8F08774
:1056A000FCED00E0001000E040420F0010B50024C7
:1056B00000BF00BF00F052F9044600BF00BF102138
:1056C000A14800F0D2FA00BF00BF204600F04AF91E
:1056D00000BF00BF10BD10B5FFF7E8FF10BD10B54B
:1056E00000209A490860FFF7A7FF10BD10B5FFF72B
:1056F000F6FFFFF7F0FF10BD00BFFEE770B50546EF
:105700000C46002614B900BFFFF7F6FF15B90A20B2
:10571000208070BD00BF00BF00F020F9064600BF2A
:1057200000BF10228849284600F056FF00BF00BF86
:10573000304600F017F900BF00BF0020208000BFF6
:10574000E7E72DE9F04105460C46002714B900BFF4
:10575000FFF7D2FF1DB90A202080BDE8F08110219B
:10576000284600F021FF0646102E15D200BF00BFCC
:1057700000F0F4F8074600BF00BF10222946724827
:1057800000F02AFF00BF00BF384600F0EBF800BF72
:1057900000BF0020208002E04FF47A70208000BF1C
:1057A000DBE710B5FFF75EFF0446204610BD7047EB
:1057B00000B5014611B900BFFFF79EFF634A1068AC
:1057C00008B1002201E04FF4FA620A8000BD5F498F
:1057D0000860704770B50546284600F0CAF80446D0
:1057E000183C204670BD70B50546284600F0C1F84B
:1057F0000446103C204670BD70B50546284600F0B2
:10580000B8F8044600BF204670BD30B502460B46CE
:105810000024D2F1FF359C4126D24FF6FF74D2F11D
:10582000FF359C410FD26FF07F44D2F1FF359C4190
:1058300003D2190E464C605C44E0190C444C645C85
:1058400004F108003EE0FF24D2F1FF359C4105D26F
:10585000190A3F4C645C04F1100033E019463C4CDB
:10586000645C04F118002DE04FF6FF750024AD1ABA
:105870009C4115D26FF07F450024AD1A9C4107D2A0
:10588000140E44EA0321324C645C04F1200019E058
:10589000140C44EA03412E4C645C04F1280011E02E
:1058A0000024D2F1FF059C4107D2140A44EA0361A7
:1058B000274C645C04F1300004E01146244C645C25
:1058C00004F1380030BD70B504460CB9082070BD35
:1058D000204600F051F805462846F8E770B5044622
:1058E0000CB9102070BD204600F046F80546284649
:1058F000F8E770B504460CB9202070BD204600F0D2
:105900003BF805462846F8E72DE9F04304460D46E6
:10591000002184EA01006940084302D14020BDE82B
:10592000F083E243E843521C40F1000102EA04061E
:1059300001EA050730463946FFF767FF8046C8F1A0
:105940003F094846EBE70000FC1F002088000020CC
:105950009CEF000872B6704762B67047EFF3108094
:1059600072B6704780F31088704730BF704720BF11
:105970007047B0FA80F0704790FAA0F0B0FA80F06B
:10598000704790FAA0F070470146412903DB5A297D
:1059900001DC012200E00022012A08D0612903DB9A
:1059A0007A2901DC012200E00022012A01D1012232
:1059B00000E00022104670470146412903DB5A29C6
:1059C00001DC012200E00022012A08D0612903DB6A
:1059D0007A2901DC012200E00022012A01D1012202
:1059E00000E00022012A08D0302903DB392901DC3C
:1059F000012200E00022012A01D1012200E0002260
:105A0000104670470146612903DB7A2901DC012237
:105A100000E00022104670470146412903DB5A2965
:105A200001DC012200E000221046704701463029C7
:105A300003DB392901DC012200E000221046704717
:105A40000146302903DB372901DC012200E0002276
:105A5000104670470146302901DB392907DD41290D
:105A600001DB462903DD612903DB662901DC012214
:105A700000E00022104670470146202901D0092984
:105A800001D1012200E00022104670470146202982
:105A900009D00D2907D00A2905D00C2903D00929DE
:105AA00001D00B2901D1012200E0002210467047ED
:105AB0000146202903DB7E2901DC012200E00022CF
:105AC000104670470146212903DB7E2901DC0122B3
:105AD00000E00022104670470146202903DB7E29A2
